{
  "_format": "hh-sol-artifact-1",
  "contractName": "NFTCollectible",
  "sourceName": "contracts/NFTCollectible.sol",
  "abi": [
    {
      "inputs": [],
      "stateMutability": "nonpayable",
      "type": "constructor"
    },
    {
      "anonymous": false,
      "inputs": [
        {
          "indexed": true,
          "internalType": "address",
          "name": "account",
          "type": "address"
        },
        {
          "indexed": true,
          "internalType": "address",
          "name": "operator",
          "type": "address"
        },
        {
          "indexed": false,
          "internalType": "bool",
          "name": "approved",
          "type": "bool"
        }
      ],
      "name": "ApprovalForAll",
      "type": "event"
    },
    {
      "anonymous": false,
      "inputs": [
        {
          "indexed": true,
          "internalType": "address",
          "name": "operator",
          "type": "address"
        },
        {
          "indexed": true,
          "internalType": "address",
          "name": "from",
          "type": "address"
        },
        {
          "indexed": true,
          "internalType": "address",
          "name": "to",
          "type": "address"
        },
        {
          "indexed": false,
          "internalType": "uint256[]",
          "name": "ids",
          "type": "uint256[]"
        },
        {
          "indexed": false,
          "internalType": "uint256[]",
          "name": "values",
          "type": "uint256[]"
        }
      ],
      "name": "TransferBatch",
      "type": "event"
    },
    {
      "anonymous": false,
      "inputs": [
        {
          "indexed": true,
          "internalType": "address",
          "name": "operator",
          "type": "address"
        },
        {
          "indexed": true,
          "internalType": "address",
          "name": "from",
          "type": "address"
        },
        {
          "indexed": true,
          "internalType": "address",
          "name": "to",
          "type": "address"
        },
        {
          "indexed": false,
          "internalType": "uint256",
          "name": "id",
          "type": "uint256"
        },
        {
          "indexed": false,
          "internalType": "uint256",
          "name": "value",
          "type": "uint256"
        }
      ],
      "name": "TransferSingle",
      "type": "event"
    },
    {
      "anonymous": false,
      "inputs": [
        {
          "indexed": false,
          "internalType": "string",
          "name": "value",
          "type": "string"
        },
        {
          "indexed": true,
          "internalType": "uint256",
          "name": "id",
          "type": "uint256"
        }
      ],
      "name": "URI",
      "type": "event"
    },
    {
      "inputs": [],
      "name": "_tokenIds",
      "outputs": [
        {
          "internalType": "uint256",
          "name": "_value",
          "type": "uint256"
        }
      ],
      "stateMutability": "view",
      "type": "function"
    },
    {
      "inputs": [
        {
          "internalType": "address",
          "name": "account",
          "type": "address"
        },
        {
          "internalType": "uint256",
          "name": "id",
          "type": "uint256"
        }
      ],
      "name": "balanceOf",
      "outputs": [
        {
          "internalType": "uint256",
          "name": "",
          "type": "uint256"
        }
      ],
      "stateMutability": "view",
      "type": "function"
    },
    {
      "inputs": [
        {
          "internalType": "address[]",
          "name": "accounts",
          "type": "address[]"
        },
        {
          "internalType": "uint256[]",
          "name": "ids",
          "type": "uint256[]"
        }
      ],
      "name": "balanceOfBatch",
      "outputs": [
        {
          "internalType": "uint256[]",
          "name": "",
          "type": "uint256[]"
        }
      ],
      "stateMutability": "view",
      "type": "function"
    },
    {
      "inputs": [
        {
          "internalType": "address",
          "name": "account",
          "type": "address"
        },
        {
          "internalType": "address",
          "name": "operator",
          "type": "address"
        }
      ],
      "name": "isApprovedForAll",
      "outputs": [
        {
          "internalType": "bool",
          "name": "",
          "type": "bool"
        }
      ],
      "stateMutability": "view",
      "type": "function"
    },
    {
      "inputs": [],
      "name": "mintNFT",
      "outputs": [],
      "stateMutability": "nonpayable",
      "type": "function"
    },
    {
      "inputs": [
        {
          "internalType": "address",
          "name": "from",
          "type": "address"
        },
        {
          "internalType": "address",
          "name": "to",
          "type": "address"
        },
        {
          "internalType": "uint256[]",
          "name": "ids",
          "type": "uint256[]"
        },
        {
          "internalType": "uint256[]",
          "name": "amounts",
          "type": "uint256[]"
        },
        {
          "internalType": "bytes",
          "name": "data",
          "type": "bytes"
        }
      ],
      "name": "safeBatchTransferFrom",
      "outputs": [],
      "stateMutability": "nonpayable",
      "type": "function"
    },
    {
      "inputs": [
        {
          "internalType": "address",
          "name": "from",
          "type": "address"
        },
        {
          "internalType": "address",
          "name": "to",
          "type": "address"
        },
        {
          "internalType": "uint256",
          "name": "id",
          "type": "uint256"
        },
        {
          "internalType": "uint256",
          "name": "amount",
          "type": "uint256"
        },
        {
          "internalType": "bytes",
          "name": "data",
          "type": "bytes"
        }
      ],
      "name": "safeTransferFrom",
      "outputs": [],
      "stateMutability": "nonpayable",
      "type": "function"
    },
    {
      "inputs": [
        {
          "internalType": "address",
          "name": "operator",
          "type": "address"
        },
        {
          "internalType": "bool",
          "name": "approved",
          "type": "bool"
        }
      ],
      "name": "setApprovalForAll",
      "outputs": [],
      "stateMutability": "nonpayable",
      "type": "function"
    },
    {
      "inputs": [
        {
          "internalType": "bytes4",
          "name": "interfaceId",
          "type": "bytes4"
        }
      ],
      "name": "supportsInterface",
      "outputs": [
        {
          "internalType": "bool",
          "name": "",
          "type": "bool"
        }
      ],
      "stateMutability": "view",
      "type": "function"
    },
    {
      "inputs": [
        {
          "internalType": "uint256",
          "name": "_tokenId",
          "type": "uint256"
        }
      ],
      "name": "uri",
      "outputs": [
        {
          "internalType": "string",
          "name": "",
          "type": "string"
        }
      ],
      "stateMutability": "pure",
      "type": "function"
    }
  ],
  "bytecode": "0x60806040523480156200001157600080fd5b506040518060800160405280605c815260200162002d8f605c91396200003d816200004460201b60201c565b5062000175565b80600290805190602001906200005c92919062000060565b5050565b8280546200006e9062000110565b90600052602060002090601f016020900481019282620000925760008555620000de565b82601f10620000ad57805160ff1916838001178555620000de565b82800160010185558215620000de579182015b82811115620000dd578251825591602001919060010190620000c0565b5b509050620000ed9190620000f1565b5090565b5b808211156200010c576000816000905550600101620000f2565b5090565b600060028204905060018216806200012957607f821691505b6020821081141562000140576200013f62000146565b5b50919050565b7f4e487b7100000000000000000000000000000000000000000000000000000000600052602260045260246000fd5b612c0a80620001856000396000f3fe608060405234801561001057600080fd5b506004361061009d5760003560e01c80634e1273f4116100665780634e1273f414610158578063a22cb46514610188578063aa46a400146101a4578063e985e9c5146101c2578063f242432a146101f25761009d565b8062fdd58e146100a257806301ffc9a7146100d25780630e89341c1461010257806314f710fe146101325780632eb2c2d61461013c575b600080fd5b6100bc60048036038101906100b79190611b64565b61020e565b6040516100c99190612288565b60405180910390f35b6100ec60048036038101906100e79190611c0c565b6102d7565b6040516100f991906120eb565b60405180910390f35b61011c60048036038101906101179190611c5e565b6103b9565b6040516101299190612106565b60405180910390f35b61013a6103ea565b005b610156600480360381019061015191906119da565b610421565b005b610172600480360381019061016d9190611ba0565b6104c2565b60405161017f9190612092565b60405180910390f35b6101a2600480360381019061019d9190611b28565b610673565b005b6101ac610689565b6040516101b99190612288565b60405180910390f35b6101dc60048036038101906101d7919061199e565b610695565b6040516101e991906120eb565b60405180910390f35b61020c60048036038101906102079190611a99565b610729565b005b60008073ffffffffffffffffffffffffffffffffffffffff168373ffffffffffffffffffffffffffffffffffffffff16141561027f576040517f08c379a000000000000000000000000000000000000000000000000000000000815260040161027690612168565b60405180910390fd5b60008083815260200190815260200160002060008473ffffffffffffffffffffffffffffffffffffffff1673ffffffffffffffffffffffffffffffffffffffff16815260200190815260200160002054905092915050565b60007fd9b67a26000000000000000000000000000000000000000000000000000000007bffffffffffffffffffffffffffffffffffffffffffffffffffffffff1916827bffffffffffffffffffffffffffffffffffffffffffffffffffffffff191614806103a257507f0e89341c000000000000000000000000000000000000000000000000000000007bffffffffffffffffffffffffffffffffffffffffffffffffffffffff1916827bffffffffffffffffffffffffffffffffffffffffffffffffffffffff1916145b806103b257506103b1826107ca565b5b9050919050565b60606103c482610834565b6040516020016103d49190611fa3565b6040516020818303038152906040529050919050565b60006103f660036109e1565b905061041433826001604051806020016040528060008152506109ef565b61041e6003610b85565b50565b610429610b9b565b73ffffffffffffffffffffffffffffffffffffffff168573ffffffffffffffffffffffffffffffffffffffff16148061046f575061046e85610469610b9b565b610695565b5b6104ae576040517f08c379a00000000000000000000000000000000000000000000000000000000081526004016104a5906121c8565b60405180910390fd5b6104bb8585858585610ba3565b5050505050565b60608151835114610508576040517f08c379a00000000000000000000000000000000000000000000000000000000081526004016104ff90612228565b60405180910390fd5b6000835167ffffffffffffffff81111561054b577f4e487b7100000000000000000000000000000000000000000000000000000000600052604160045260246000fd5b6040519080825280602002602001820160405280156105795781602001602082028036833780820191505090505b50905060005b8451811015610668576106128582815181106105c4577f4e487b7100000000000000000000000000000000000000000000000000000000600052603260045260246000fd5b6020026020010151858381518110610605577f4e487b7100000000000000000000000000000000000000000000000000000000600052603260045260246000fd5b602002602001015161020e565b82828151811061064b577f4e487b7100000000000000000000000000000000000000000000000000000000600052603260045260246000fd5b6020026020010181815250508061066190612598565b905061057f565b508091505092915050565b61068561067e610b9b565b8383610f03565b5050565b60038060000154905081565b6000600160008473ffffffffffffffffffffffffffffffffffffffff1673ffffffffffffffffffffffffffffffffffffffff16815260200190815260200160002060008373ffffffffffffffffffffffffffffffffffffffff1673ffffffffffffffffffffffffffffffffffffffff16815260200190815260200160002060009054906101000a900460ff16905092915050565b610731610b9b565b73ffffffffffffffffffffffffffffffffffffffff168573ffffffffffffffffffffffffffffffffffffffff161480610777575061077685610771610b9b565b610695565b5b6107b6576040517f08c379a00000000000000000000000000000000000000000000000000000000081526004016107ad90612188565b60405180910390fd5b6107c38585858585611070565b5050505050565b60007f01ffc9a7000000000000000000000000000000000000000000000000000000007bffffffffffffffffffffffffffffffffffffffffffffffffffffffff1916827bffffffffffffffffffffffffffffffffffffffffffffffffffffffff1916149050919050565b6060600082141561087c576040518060400160405280600181526020017f300000000000000000000000000000000000000000000000000000000000000081525090506109dc565b600082905060005b600082146108ae57808061089790612598565b915050600a826108a7919061244c565b9150610884565b60008167ffffffffffffffff8111156108f0577f4e487b7100000000000000000000000000000000000000000000000000000000600052604160045260246000fd5b6040519080825280601f01601f1916602001820160405280156109225781602001600182028036833780820191505090505b5090505b600085146109d55760018261093b919061247d565b9150600a8561094a91906125e1565b603061095691906123f6565b60f81b818381518110610992577f4e487b7100000000000000000000000000000000000000000000000000000000600052603260045260246000fd5b60200101907effffffffffffffffffffffffffffffffffffffffffffffffffffffffffffff1916908160001a905350600a856109ce919061244c565b9450610926565b8093505050505b919050565b600081600001549050919050565b600073ffffffffffffffffffffffffffffffffffffffff168473ffffffffffffffffffffffffffffffffffffffff161415610a5f576040517f08c379a0000000000000000000000000000000000000000000000000000000008152600401610a5690612268565b60405180910390fd5b6000610a69610b9b565b9050610a8a81600087610a7b886112f2565b610a84886112f2565b876113b8565b8260008086815260200190815260200160002060008773ffffffffffffffffffffffffffffffffffffffff1673ffffffffffffffffffffffffffffffffffffffff1681526020019081526020016000206000828254610ae991906123f6565b925050819055508473ffffffffffffffffffffffffffffffffffffffff16600073ffffffffffffffffffffffffffffffffffffffff168273ffffffffffffffffffffffffffffffffffffffff167fc3d58168c5ae7397731d063d5bbf3d657854427343f4c083240f7aacaa2d0f628787604051610b679291906122a3565b60405180910390a4610b7e816000878787876113c0565b5050505050565b6001816000016000828254019250508190555050565b600033905090565b8151835114610be7576040517f08c379a0000000000000000000000000000000000000000000000000000000008152600401610bde90612248565b60405180910390fd5b600073ffffffffffffffffffffffffffffffffffffffff168473ffffffffffffffffffffffffffffffffffffffff161415610c57576040517f08c379a0000000000000000000000000000000000000000000000000000000008152600401610c4e906121a8565b60405180910390fd5b6000610c61610b9b565b9050610c718187878787876113b8565b60005b8451811015610e6e576000858281518110610cb8577f4e487b7100000000000000000000000000000000000000000000000000000000600052603260045260246000fd5b602002602001015190506000858381518110610cfd577f4e487b7100000000000000000000000000000000000000000000000000000000600052603260045260246000fd5b60200260200101519050600080600084815260200190815260200160002060008b73ffffffffffffffffffffffffffffffffffffffff1673ffffffffffffffffffffffffffffffffffffffff16815260200190815260200160002054905081811015610d9e576040517f08c379a0000000000000000000000000000000000000000000000000000000008152600401610d95906121e8565b60405180910390fd5b81810360008085815260200190815260200160002060008c73ffffffffffffffffffffffffffffffffffffffff1673ffffffffffffffffffffffffffffffffffffffff168152602001908152602001600020819055508160008085815260200190815260200160002060008b73ffffffffffffffffffffffffffffffffffffffff1673ffffffffffffffffffffffffffffffffffffffff1681526020019081526020016000206000828254610e5391906123f6565b9250508190555050505080610e6790612598565b9050610c74565b508473ffffffffffffffffffffffffffffffffffffffff168673ffffffffffffffffffffffffffffffffffffffff168273ffffffffffffffffffffffffffffffffffffffff167f4a39dc06d4c0dbc64b70af90fd698a233a518aa5d07e595d983b8c0526c8f7fb8787604051610ee59291906120b4565b60405180910390a4610efb8187878787876115a7565b505050505050565b8173ffffffffffffffffffffffffffffffffffffffff168373ffffffffffffffffffffffffffffffffffffffff161415610f72576040517f08c379a0000000000000000000000000000000000000000000000000000000008152600401610f6990612208565b60405180910390fd5b80600160008573ffffffffffffffffffffffffffffffffffffffff1673ffffffffffffffffffffffffffffffffffffffff16815260200190815260200160002060008473ffffffffffffffffffffffffffffffffffffffff1673ffffffffffffffffffffffffffffffffffffffff16815260200190815260200160002060006101000a81548160ff0219169083151502179055508173ffffffffffffffffffffffffffffffffffffffff168373ffffffffffffffffffffffffffffffffffffffff167f17307eab39ab6107e8899845ad3d59bd9653f200f220920489ca2b5937696c318360405161106391906120eb565b60405180910390a3505050565b600073ffffffffffffffffffffffffffffffffffffffff168473ffffffffffffffffffffffffffffffffffffffff1614156110e0576040517f08c379a00000000000000000000000000000000000000000000000000000000081526004016110d7906121a8565b60405180910390fd5b60006110ea610b9b565b905061110a8187876110fb886112f2565b611104886112f2565b876113b8565b600080600086815260200190815260200160002060008873ffffffffffffffffffffffffffffffffffffffff1673ffffffffffffffffffffffffffffffffffffffff168152602001908152602001600020549050838110156111a1576040517f08c379a0000000000000000000000000000000000000000000000000000000008152600401611198906121e8565b60405180910390fd5b83810360008087815260200190815260200160002060008973ffffffffffffffffffffffffffffffffffffffff1673ffffffffffffffffffffffffffffffffffffffff168152602001908152602001600020819055508360008087815260200190815260200160002060008873ffffffffffffffffffffffffffffffffffffffff1673ffffffffffffffffffffffffffffffffffffffff168152602001908152602001600020600082825461125691906123f6565b925050819055508573ffffffffffffffffffffffffffffffffffffffff168773ffffffffffffffffffffffffffffffffffffffff168373ffffffffffffffffffffffffffffffffffffffff167fc3d58168c5ae7397731d063d5bbf3d657854427343f4c083240f7aacaa2d0f6288886040516112d39291906122a3565b60405180910390a46112e98288888888886113c0565b50505050505050565b60606000600167ffffffffffffffff811115611337577f4e487b7100000000000000000000000000000000000000000000000000000000600052604160045260246000fd5b6040519080825280602002602001820160405280156113655781602001602082028036833780820191505090505b50905082816000815181106113a3577f4e487b7100000000000000000000000000000000000000000000000000000000600052603260045260246000fd5b60200260200101818152505080915050919050565b505050505050565b6113df8473ffffffffffffffffffffffffffffffffffffffff1661178e565b1561159f578373ffffffffffffffffffffffffffffffffffffffff1663f23a6e6187878686866040518663ffffffff1660e01b8152600401611425959493929190612038565b602060405180830381600087803b15801561143f57600080fd5b505af192505050801561147057506040513d601f19601f8201168201806040525081019061146d9190611c35565b60015b6115165761147c61269f565b806308c379a014156114d95750611491612ae2565b8061149c57506114db565b806040517f08c379a00000000000000000000000000000000000000000000000000000000081526004016114d09190612106565b60405180910390fd5b505b6040517f08c379a000000000000000000000000000000000000000000000000000000000815260040161150d90612128565b60405180910390fd5b63f23a6e6160e01b7bffffffffffffffffffffffffffffffffffffffffffffffffffffffff1916817bffffffffffffffffffffffffffffffffffffffffffffffffffffffff19161461159d576040517f08c379a000000000000000000000000000000000000000000000000000000000815260040161159490612148565b60405180910390fd5b505b505050505050565b6115c68473ffffffffffffffffffffffffffffffffffffffff1661178e565b15611786578373ffffffffffffffffffffffffffffffffffffffff1663bc197c8187878686866040518663ffffffff1660e01b815260040161160c959493929190611fd0565b602060405180830381600087803b15801561162657600080fd5b505af192505050801561165757506040513d601f19601f820116820180604052508101906116549190611c35565b60015b6116fd5761166361269f565b806308c379a014156116c05750611678612ae2565b8061168357506116c2565b806040517f08c379a00000000000000000000000000000000000000000000000000000000081526004016116b79190612106565b60405180910390fd5b505b6040517f08c379a00000000000000000000000000000000000000000000000000000000081526004016116f490612128565b60405180910390fd5b63bc197c8160e01b7bffffffffffffffffffffffffffffffffffffffffffffffffffffffff1916817bffffffffffffffffffffffffffffffffffffffffffffffffffffffff191614611784576040517f08c379a000000000000000000000000000000000000000000000000000000000815260040161177b90612148565b60405180910390fd5b505b505050505050565b600080823b905060008111915050919050565b60006117b46117af846122f1565b6122cc565b905080838252602082019050828560208602820111156117d357600080fd5b60005b8581101561180357816117e988826118b7565b8452602084019350602083019250506001810190506117d6565b5050509392505050565b600061182061181b8461231d565b6122cc565b9050808382526020820190508285602086028201111561183f57600080fd5b60005b8581101561186f57816118558882611989565b845260208401935060208301925050600181019050611842565b5050509392505050565b600061188c61188784612349565b6122cc565b9050828152602081018484840111156118a457600080fd5b6118af848285612525565b509392505050565b6000813590506118c681612b78565b92915050565b600082601f8301126118dd57600080fd5b81356118ed8482602086016117a1565b91505092915050565b600082601f83011261190757600080fd5b813561191784826020860161180d565b91505092915050565b60008135905061192f81612b8f565b92915050565b60008135905061194481612ba6565b92915050565b60008151905061195981612ba6565b92915050565b600082601f83011261197057600080fd5b8135611980848260208601611879565b91505092915050565b60008135905061199881612bbd565b92915050565b600080604083850312156119b157600080fd5b60006119bf858286016118b7565b92505060206119d0858286016118b7565b9150509250929050565b600080600080600060a086880312156119f257600080fd5b6000611a00888289016118b7565b9550506020611a11888289016118b7565b945050604086013567ffffffffffffffff811115611a2e57600080fd5b611a3a888289016118f6565b935050606086013567ffffffffffffffff811115611a5757600080fd5b611a63888289016118f6565b925050608086013567ffffffffffffffff811115611a8057600080fd5b611a8c8882890161195f565b9150509295509295909350565b600080600080600060a08688031215611ab157600080fd5b6000611abf888289016118b7565b9550506020611ad0888289016118b7565b9450506040611ae188828901611989565b9350506060611af288828901611989565b925050608086013567ffffffffffffffff811115611b0f57600080fd5b611b1b8882890161195f565b9150509295509295909350565b60008060408385031215611b3b57600080fd5b6000611b49858286016118b7565b9250506020611b5a85828601611920565b9150509250929050565b60008060408385031215611b7757600080fd5b6000611b85858286016118b7565b9250506020611b9685828601611989565b9150509250929050565b60008060408385031215611bb357600080fd5b600083013567ffffffffffffffff811115611bcd57600080fd5b611bd9858286016118cc565b925050602083013567ffffffffffffffff811115611bf657600080fd5b611c02858286016118f6565b9150509250929050565b600060208284031215611c1e57600080fd5b6000611c2c84828501611935565b91505092915050565b600060208284031215611c4757600080fd5b6000611c558482850161194a565b91505092915050565b600060208284031215611c7057600080fd5b6000611c7e84828501611989565b91505092915050565b6000611c938383611f85565b60208301905092915050565b611ca8816124b1565b82525050565b6000611cb98261238a565b611cc381856123b8565b9350611cce8361237a565b8060005b83811015611cff578151611ce68882611c87565b9750611cf1836123ab565b925050600181019050611cd2565b5085935050505092915050565b611d15816124c3565b82525050565b6000611d2682612395565b611d3081856123c9565b9350611d40818560208601612534565b611d49816126c1565b840191505092915050565b6000611d5f826123a0565b611d6981856123da565b9350611d79818560208601612534565b611d82816126c1565b840191505092915050565b6000611d98826123a0565b611da281856123eb565b9350611db2818560208601612534565b80840191505092915050565b6000611dcb6034836123da565b9150611dd6826126df565b604082019050919050565b6000611dee6028836123da565b9150611df98261272e565b604082019050919050565b6000611e11602b836123da565b9150611e1c8261277d565b604082019050919050565b6000611e346029836123da565b9150611e3f826127cc565b604082019050919050565b6000611e576025836123da565b9150611e628261281b565b604082019050919050565b6000611e7a6009836123eb565b9150611e858261286a565b600982019050919050565b6000611e9d6032836123da565b9150611ea882612893565b604082019050919050565b6000611ec0602a836123da565b9150611ecb826128e2565b604082019050919050565b6000611ee36053836123eb565b9150611eee82612931565b605382019050919050565b6000611f066029836123da565b9150611f11826129a6565b604082019050919050565b6000611f296029836123da565b9150611f34826129f5565b604082019050919050565b6000611f4c6028836123da565b9150611f5782612a44565b604082019050919050565b6000611f6f6021836123da565b9150611f7a82612a93565b604082019050919050565b611f8e8161251b565b82525050565b611f9d8161251b565b82525050565b6000611fae82611ed6565b9150611fba8284611d8d565b9150611fc582611e6d565b915081905092915050565b600060a082019050611fe56000830188611c9f565b611ff26020830187611c9f565b81810360408301526120048186611cae565b905081810360608301526120188185611cae565b9050818103608083015261202c8184611d1b565b90509695505050505050565b600060a08201905061204d6000830188611c9f565b61205a6020830187611c9f565b6120676040830186611f94565b6120746060830185611f94565b81810360808301526120868184611d1b565b90509695505050505050565b600060208201905081810360008301526120ac8184611cae565b905092915050565b600060408201905081810360008301526120ce8185611cae565b905081810360208301526120e28184611cae565b90509392505050565b60006020820190506121006000830184611d0c565b92915050565b600060208201905081810360008301526121208184611d54565b905092915050565b6000602082019050818103600083015261214181611dbe565b9050919050565b6000602082019050818103600083015261216181611de1565b9050919050565b6000602082019050818103600083015261218181611e04565b9050919050565b600060208201905081810360008301526121a181611e27565b9050919050565b600060208201905081810360008301526121c181611e4a565b9050919050565b600060208201905081810360008301526121e181611e90565b9050919050565b6000602082019050818103600083015261220181611eb3565b9050919050565b6000602082019050818103600083015261222181611ef9565b9050919050565b6000602082019050818103600083015261224181611f1c565b9050919050565b6000602082019050818103600083015261226181611f3f565b9050919050565b6000602082019050818103600083015261228181611f62565b9050919050565b600060208201905061229d6000830184611f94565b92915050565b60006040820190506122b86000830185611f94565b6122c56020830184611f94565b9392505050565b60006122d66122e7565b90506122e28282612567565b919050565b6000604051905090565b600067ffffffffffffffff82111561230c5761230b612670565b5b602082029050602081019050919050565b600067ffffffffffffffff82111561233857612337612670565b5b602082029050602081019050919050565b600067ffffffffffffffff82111561236457612363612670565b5b61236d826126c1565b9050602081019050919050565b6000819050602082019050919050565b600081519050919050565b600081519050919050565b600081519050919050565b6000602082019050919050565b600082825260208201905092915050565b600082825260208201905092915050565b600082825260208201905092915050565b600081905092915050565b60006124018261251b565b915061240c8361251b565b9250827fffffffffffffffffffffffffffffffffffffffffffffffffffffffffffffffff0382111561244157612440612612565b5b828201905092915050565b60006124578261251b565b91506124628361251b565b92508261247257612471612641565b5b828204905092915050565b60006124888261251b565b91506124938361251b565b9250828210156124a6576124a5612612565b5b828203905092915050565b60006124bc826124fb565b9050919050565b60008115159050919050565b60007fffffffff0000000000000000000000000000000000000000000000000000000082169050919050565b600073ffffffffffffffffffffffffffffffffffffffff82169050919050565b6000819050919050565b82818337600083830152505050565b60005b83811015612552578082015181840152602081019050612537565b83811115612561576000848401525b50505050565b612570826126c1565b810181811067ffffffffffffffff8211171561258f5761258e612670565b5b80604052505050565b60006125a38261251b565b91507fffffffffffffffffffffffffffffffffffffffffffffffffffffffffffffffff8214156125d6576125d5612612565b5b600182019050919050565b60006125ec8261251b565b91506125f78361251b565b92508261260757612606612641565b5b828206905092915050565b7f4e487b7100000000000000000000000000000000000000000000000000000000600052601160045260246000fd5b7f4e487b7100000000000000000000000000000000000000000000000000000000600052601260045260246000fd5b7f4e487b7100000000000000000000000000000000000000000000000000000000600052604160045260246000fd5b600060033d11156126be5760046000803e6126bb6000516126d2565b90505b90565b6000601f19601f8301169050919050565b60008160e01c9050919050565b7f455243313135353a207472616e7366657220746f206e6f6e204552433131353560008201527f526563656976657220696d706c656d656e746572000000000000000000000000602082015250565b7f455243313135353a204552433131353552656365697665722072656a6563746560008201527f6420746f6b656e73000000000000000000000000000000000000000000000000602082015250565b7f455243313135353a2062616c616e636520717565727920666f7220746865207a60008201527f65726f2061646472657373000000000000000000000000000000000000000000602082015250565b7f455243313135353a2063616c6c6572206973206e6f74206f776e6572206e6f7260008201527f20617070726f7665640000000000000000000000000000000000000000000000602082015250565b7f455243313135353a207472616e7366657220746f20746865207a65726f20616460008201527f6472657373000000000000000000000000000000000000000000000000000000602082015250565b7f7b69647d2e6a736f6e0000000000000000000000000000000000000000000000600082015250565b7f455243313135353a207472616e736665722063616c6c6572206973206e6f742060008201527f6f776e6572206e6f7220617070726f7665640000000000000000000000000000602082015250565b7f455243313135353a20696e73756666696369656e742062616c616e636520666f60008201527f72207472616e7366657200000000000000000000000000000000000000000000602082015250565b7f68747470733a2f2f6261667962656968756c367a736d627a7972676d6a74683360008201527f796e6b6d6368657079767968637765636e32797863353770707167707672333560208201527f7a73712e697066732e647765622e6c696e6b2f00000000000000000000000000604082015250565b7f455243313135353a2073657474696e6720617070726f76616c2073746174757360008201527f20666f722073656c660000000000000000000000000000000000000000000000602082015250565b7f455243313135353a206163636f756e747320616e6420696473206c656e67746860008201527f206d69736d617463680000000000000000000000000000000000000000000000602082015250565b7f455243313135353a2069647320616e6420616d6f756e7473206c656e6774682060008201527f6d69736d61746368000000000000000000000000000000000000000000000000602082015250565b7f455243313135353a206d696e7420746f20746865207a65726f2061646472657360008201527f7300000000000000000000000000000000000000000000000000000000000000602082015250565b600060443d1015612af257612b75565b612afa6122e7565b60043d036004823e80513d602482011167ffffffffffffffff82111715612b22575050612b75565b808201805167ffffffffffffffff811115612b405750505050612b75565b80602083010160043d038501811115612b5d575050505050612b75565b612b6c82602001850186612567565b82955050505050505b90565b612b81816124b1565b8114612b8c57600080fd5b50565b612b98816124c3565b8114612ba357600080fd5b50565b612baf816124cf565b8114612bba57600080fd5b50565b612bc68161251b565b8114612bd157600080fd5b5056fea2646970667358221220c541c34f290e4faa8b7e6060497529763bc3997ee6c69c863666719abad6cb4d64736f6c6343000804003368747470733a2f2f6261667962656968756c367a736d627a7972676d6a746833796e6b6d6368657079767968637765636e3279786335377070716770767233357a73712e697066732e647765622e6c696e6b2f7b69647d2e6a736f6e",
  "linkReferences": {},
  "deployedLinkReferences": {}
}